{
  "address": "0xf311342bce77086D7C28e5Ba4544c02c5bbE3443",
  "abi": [
    {
      "anonymous": false,
      "inputs": [
        {
          "indexed": true,
          "internalType": "address",
          "name": "addr",
          "type": "address"
        },
        {
          "indexed": true,
          "internalType": "bytes32",
          "name": "pubkey",
          "type": "bytes32"
        }
      ],
      "name": "LinkrPulled",
      "type": "event"
    },
    {
      "anonymous": false,
      "inputs": [
        {
          "indexed": true,
          "internalType": "address",
          "name": "addr",
          "type": "address"
        },
        {
          "indexed": true,
          "internalType": "bytes32",
          "name": "pubkey",
          "type": "bytes32"
        }
      ],
      "name": "LinkrPushed",
      "type": "event"
    },
    {
      "inputs": [
        {
          "internalType": "address",
          "name": "",
          "type": "address"
        }
      ],
      "name": "addressPubkey",
      "outputs": [
        {
          "internalType": "bytes32",
          "name": "",
          "type": "bytes32"
        }
      ],
      "stateMutability": "view",
      "type": "function"
    },
    {
      "inputs": [
        {
          "internalType": "bytes32",
          "name": "pubkey",
          "type": "bytes32"
        },
        {
          "internalType": "uint256",
          "name": "createdAt",
          "type": "uint256"
        },
        {
          "internalType": "uint256",
          "name": "kind",
          "type": "uint256"
        },
        {
          "internalType": "string",
          "name": "tags",
          "type": "string"
        },
        {
          "internalType": "string",
          "name": "content",
          "type": "string"
        }
      ],
      "name": "getEventHash",
      "outputs": [
        {
          "internalType": "bytes32",
          "name": "",
          "type": "bytes32"
        }
      ],
      "stateMutability": "pure",
      "type": "function"
    },
    {
      "inputs": [
        {
          "internalType": "bytes32",
          "name": "",
          "type": "bytes32"
        }
      ],
      "name": "pubkeyAddress",
      "outputs": [
        {
          "internalType": "address",
          "name": "",
          "type": "address"
        }
      ],
      "stateMutability": "view",
      "type": "function"
    },
    {
      "inputs": [],
      "name": "pullLinkr",
      "outputs": [],
      "stateMutability": "nonpayable",
      "type": "function"
    },
    {
      "inputs": [
        {
          "internalType": "bytes32",
          "name": "pubkey",
          "type": "bytes32"
        },
        {
          "internalType": "uint256",
          "name": "createdAt",
          "type": "uint256"
        },
        {
          "internalType": "uint256",
          "name": "kind",
          "type": "uint256"
        },
        {
          "internalType": "string",
          "name": "tags",
          "type": "string"
        },
        {
          "internalType": "bytes",
          "name": "sig",
          "type": "bytes"
        }
      ],
      "name": "pushLinkr",
      "outputs": [],
      "stateMutability": "nonpayable",
      "type": "function"
    },
    {
      "inputs": [
        {
          "internalType": "bytes32",
          "name": "eventId",
          "type": "bytes32"
        },
        {
          "internalType": "bytes32",
          "name": "pubkey",
          "type": "bytes32"
        },
        {
          "internalType": "uint256",
          "name": "createdAt",
          "type": "uint256"
        },
        {
          "internalType": "uint256",
          "name": "kind",
          "type": "uint256"
        },
        {
          "internalType": "string",
          "name": "tags",
          "type": "string"
        },
        {
          "internalType": "string",
          "name": "content",
          "type": "string"
        },
        {
          "internalType": "bytes",
          "name": "signature",
          "type": "bytes"
        }
      ],
      "name": "verifyNostrEvent",
      "outputs": [
        {
          "internalType": "bool",
          "name": "",
          "type": "bool"
        }
      ],
      "stateMutability": "view",
      "type": "function"
    }
  ],
  "transactionHash": "0xe7eee8fd3570d6982f31ed2b7309870e70cbe3583c611cc6d77b360792afa4c5",
  "args": [],
  "numDeployments": 2,
  "solcInputHash": "1a2b66d5103fb8b0dc5e3f615fffb6cb",
  "bytecode": "0x6080604052348015600f57600080fd5b506116438061001f6000396000f3fe608060405234801561001057600080fd5b50600436106100625760003560e01c80630769218d1461006757806328b556b51461007157806369492107146100975780636c72992f146100d8578063a1f7347d146100fb578063eddfb5061461011b575b600080fd5b61006f61012e565b005b61008461007f36600461114d565b6101e6565b6040519081526020015b60405180910390f35b6100c06100a53660046111d3565b6001602052600090815260409020546001600160a01b031681565b6040516001600160a01b03909116815260200161008e565b6100eb6100e6366004611235565b6102a7565b604051901515815260200161008e565b6100846101093660046112f6565b60006020819052908152604090205481565b61006f61012936600461131f565b6103fc565b33600090815260208190526040902054806101905760405162461bcd60e51b815260206004820152601e60248201527f4e6f206c696e6b20666f756e6420666f7220746869732061646472657373000060448201526064015b60405180910390fd5b33600081815260208181526040808320839055848352600190915280822080546001600160a01b0319169055518392917fcb1761c67e581f1806ca9344609c4f101f20600f0fbacb43bb965d5c899e136c91a350565b600080610213876040516020016101ff91815260200190565b604051602081830303815290604052610645565b61021c876107e0565b610225876107e0565b868660405160200161023b9594939291906113eb565b604051602081830303815290604052905060028160405161025c91906114b7565b602060405180830381855afa158015610279573d6000803e3d6000fd5b5050506040513d601f19601f8201168201806040525081019061029c91906114d3565b979650505050505050565b6000604082146102f95760405162461bcd60e51b815260206004820152601a60248201527f5369676e6174757265206d7573742062652036342062797465730000000000006044820152606401610187565b6000610311896040516020016101ff91815260200190565b61031a896107e0565b610323896107e0565b88886040516020016103399594939291906113eb565b6040516020818303038152906040529050600060028260405161035c91906114b7565b602060405180830381855afa158015610379573d6000803e3d6000fd5b5050506040513d601f19601f8201168201806040525081019061039c91906114d3565b90508a81146103e15760405162461bcd60e51b815260206004820152601160248201527008aeccadce840928840dad2e6dac2e8c6d607b1b6044820152606401610187565b6103ed8a8c878761090c565b9b9a5050505050505050505050565b6040811461044c5760405162461bcd60e51b815260206004820152601860248201527f496e76616c6964207369676e6174757265206c656e67746800000000000000006044820152606401610187565b61045861025842611502565b8511156104a75760405162461bcd60e51b815260206004820152601f60248201527f43726561746564417420746f6f2066617220696e2074686520667574757265006044820152606401610187565b6104b46201518042611515565b8510156105035760405162461bcd60e51b815260206004820152601d60248201527f43726561746564417420746f6f2066617220696e2074686520706173740000006044820152606401610187565b600061050e33610c03565b9050600061051f88888888866101e6565b905061052d8882868661090c565b6105795760405162461bcd60e51b815260206004820152601760248201527f496e76616c6964204e6f737472207369676e61747572650000000000000000006044820152606401610187565b3360009081526020819052604090205480156105ac57600081815260016020526040902080546001600160a01b03191690555b6000898152600160205260409020546001600160a01b031680156105e4576001600160a01b0381166000908152602081905260408120555b336000818152602081815260408083208e90558d8352600190915280822080546001600160a01b03191684179055518c92917f33d53066fcd804d37605011eda236659f0b7ae3d7006521f5ce372ce912411d291a350505050505050505050565b60408051808201909152601081526f181899199a1a9b1b9c1cb0b131b232b360811b6020820152815160609190600090610680906002611528565b67ffffffffffffffff811115610698576106986110a8565b6040519080825280601f01601f1916602001820160405280156106c2576020820181803683370190505b50905060005b84518110156107d8578260048683815181106106e6576106e661153f565b016020015182516001600160f81b031990911690911c60f81c90811061070e5761070e61153f565b01602001516001600160f81b03191682610729836002611528565b815181106107395761073961153f565b60200101906001600160f81b031916908160001a905350828582815181106107635761076361153f565b602091010151815160f89190911c600f169081106107835761078361153f565b01602001516001600160f81b0319168261079e836002611528565b6107a9906001611502565b815181106107b9576107b961153f565b60200101906001600160f81b031916908160001a9053506001016106c8565b509392505050565b6060816000036108075750506040805180820190915260018152600360fc1b602082015290565b8160005b8115610831578061081b81611555565b915061082a9050600a83611584565b915061080b565b60008167ffffffffffffffff81111561084c5761084c6110a8565b6040519080825280601f01601f191660200182016040528015610876576020820181803683370190505b509050815b85156109035761088c600182611515565b9050600061089b600a88611584565b6108a690600a611528565b6108b09088611515565b6108bb906030611598565b905060008160f81b9050808484815181106108d8576108d861153f565b60200101906001600160f81b031916908160001a9053506108fa600a89611584565b9750505061087b565b50949350505050565b60008061091c60208285876115b1565b610925916115db565b905060006109376040602086886115b1565b610940916115db565b90506401000003d019821061095a57600092505050610bfb565b70014551231950b75fc4402da1732fc9bebe19811061097e57600092505050610bfb565b866401000003d01981106109985760009350505050610bfb565b60006109a382610ddb565b9050806000036109ba576000945050505050610bfb565b6109c56002826115f9565b156109dd576109da816401000003d019611515565b90505b60006002604051610a059070424950303334302f6368616c6c656e676560781b815260110190565b602060405180830381855afa158015610a22573d6000803e3d6000fd5b5050506040513d601f19601f82011682018060405250810190610a4591906114d3565b604080516020810183905290810182905260608101879052608081018c905260a081018b905290915060009070014551231950b75fc4402da1732fc9bebe199060029060c00160408051601f1981840301815290829052610aa5916114b7565b602060405180830381855afa158015610ac2573d6000803e3d6000fd5b5050506040513d601f19601f82011682018060405250810190610ae591906114d3565b610aef91906115f9565b9050600080610b3f7f79be667ef9dcbbac55a06295ce870b07029bfcdb2dce28d959f2815b16f817987f483ada7726a3c4655da4fbfc0e1108a8fd17b448a68554199c47d08ffb10d4b889610e4f565b91509150600080610b51888887610e4f565b90925090506000610b68826401000003d019611515565b9050600080610b7987878786610ed5565b91509150816000148015610b8b575080155b15610ba65760009d5050505050505050505050505050610bfb565b8c8214610bc35760009d5050505050505050505050505050610bfb565b610bce6002826115f9565b15610be95760009d5050505050505050505050505050610bfb565b60019d50505050505050505050505050505b949350505050565b604080518082018252601081526f181899199a1a9b1b9c1cb0b131b232b360811b60208201528151602a80825260608281019094526001600160a01b0385169291600091602082018180368337019050509050600360fc1b81600081518110610c6e57610c6e61153f565b60200101906001600160f81b031916908160001a905350600f60fb1b81600181518110610c9d57610c9d61153f565b60200101906001600160f81b031916908160001a90535060005b60148110156109035782600485610ccf84600c611502565b60208110610cdf57610cdf61153f565b1a60f81b6001600160f81b031916901c60f81c60ff1681518110610d0557610d0561153f565b01602001516001600160f81b03191682610d20836002611528565b610d2b906002611502565b81518110610d3b57610d3b61153f565b60200101906001600160f81b031916908160001a9053508284610d5f83600c611502565b60208110610d6f57610d6f61153f565b825191901a600f16908110610d8657610d8661153f565b01602001516001600160f81b03191682610da1836002611528565b610dac906003611502565b81518110610dbc57610dbc61153f565b60200101906001600160f81b031916908160001a905350600101610cb7565b6000806401000003d01960076401000003d019856401000003d019878809090890506000610e2c826004610e166401000003d0196001611502565b610e209190611584565b6401000003d019611044565b9050816401000003d01982830914610e48575060009392505050565b9392505050565b60008082600003610e6557506000905080610ecd565b50600090508084845b8415610eca5784600116600103610ead5783158015610e8b575082155b15610e9b57819350809250610ead565b610ea784848484610ed5565b90945092505b610eb982828484610ed5565b60019690961c959092509050610e6e565b50505b935093915050565b60008085158015610ee4575084155b15610ef357508290508161103b565b83158015610eff575082155b15610f0e57508490508361103b565b6000848703610f8357838614610f2b57600080925092505061103b565b85600003610f4057600080925092505061103b565b60006401000003d01980898a09600309905060006401000003d0198860020990506401000003d019610f78826401000003d019611088565b830992505050610fdb565b60006401000003d019610f9c886401000003d019611515565b8608905060006401000003d019610fb98a6401000003d019611515565b880890506401000003d019610fd4826401000003d019611088565b8309925050505b6401000003d01980868908610ff6906401000003d019611515565b6401000003d0198384090892506401000003d01961101a876401000003d019611515565b6401000003d01980611032876401000003d019611515565b8b088409089150505b94509492505050565b600060405160208152602080820152602060408201528460608201528360808201528260a082015260208160c08360055afa61107f57600080fd5b51949350505050565b600061109f83611099600285611515565b84611044565b90505b92915050565b634e487b7160e01b600052604160045260246000fd5b600082601f8301126110cf57600080fd5b813567ffffffffffffffff8111156110e9576110e96110a8565b604051601f8201601f19908116603f0116810167ffffffffffffffff81118282101715611118576111186110a8565b60405281815283820160200185101561113057600080fd5b816020850160208301376000918101602001919091529392505050565b600080600080600060a0868803121561116557600080fd5b853594506020860135935060408601359250606086013567ffffffffffffffff81111561119157600080fd5b61119d888289016110be565b925050608086013567ffffffffffffffff8111156111ba57600080fd5b6111c6888289016110be565b9150509295509295909350565b6000602082840312156111e557600080fd5b5035919050565b60008083601f8401126111fe57600080fd5b50813567ffffffffffffffff81111561121657600080fd5b60208301915083602082850101111561122e57600080fd5b9250929050565b60008060008060008060008060e0898b03121561125157600080fd5b88359750602089013596506040890135955060608901359450608089013567ffffffffffffffff81111561128457600080fd5b6112908b828c016110be565b94505060a089013567ffffffffffffffff8111156112ad57600080fd5b6112b98b828c016110be565b93505060c089013567ffffffffffffffff8111156112d657600080fd5b6112e28b828c016111ec565b999c989b5096995094979396929594505050565b60006020828403121561130857600080fd5b81356001600160a01b0381168114610e4857600080fd5b60008060008060008060a0878903121561133857600080fd5b863595506020870135945060408701359350606087013567ffffffffffffffff81111561136457600080fd5b61137089828a016110be565b935050608087013567ffffffffffffffff81111561138d57600080fd5b61139989828a016111ec565b979a9699509497509295939492505050565b60005b838110156113c65781810151838201526020016113ae565b50506000910152565b600081516113e18185602086016113ab565b9290920192915050565b632d98161160e11b8152855160009061140b816004850160208b016113ab565b61088b60f21b600491840191820152865161142d816006840160208b016113ab565b600481830101915050600b60fa1b60028201528551611453816003840160208a016113ab565b600281830101915050600b60fa1b600182015284516114798160028401602089016113ab565b6114aa61149c61149660028585010161161160f11b815260020190565b876113cf565b61225d60f01b815260020190565b9998505050505050505050565b600082516114c98184602087016113ab565b9190910192915050565b6000602082840312156114e557600080fd5b5051919050565b634e487b7160e01b600052601160045260246000fd5b808201808211156110a2576110a26114ec565b818103818111156110a2576110a26114ec565b80820281158282048414176110a2576110a26114ec565b634e487b7160e01b600052603260045260246000fd5b600060018201611567576115676114ec565b5060010190565b634e487b7160e01b600052601260045260246000fd5b6000826115935761159361156e565b500490565b60ff81811683821601908111156110a2576110a26114ec565b600080858511156115c157600080fd5b838611156115ce57600080fd5b5050820193919092039150565b803560208310156110a257600019602084900360031b1b1692915050565b6000826116085761160861156e565b50069056fea264697066735822122004e67e11f4d3532fe10cc80b19486c7700c53ac6c562fec3a64290b0a384ed3f64736f6c634300081e0033",
  "devdoc": {
    "details": "Permissionless smart contract to link Ethereum addresses with Nostr public keys.      Full BIP-340 Schnorr signature verification performed entirely on-chain.",
    "kind": "dev",
    "methods": {
      "getEventHash(bytes32,uint256,uint256,string,string)": {
        "details": "Utility function for testing - compute event hash",
        "params": {
          "content": "Address content (without 0x prefix)",
          "createdAt": "Unix timestamp",
          "kind": "Event kind",
          "pubkey": "The public key",
          "tags": "Event tags"
        },
        "returns": {
          "_0": "bytes32 The computed event hash"
        }
      },
      "pullLinkr()": {
        "details": "Remove the linkage between caller's address and their Nostr pubkey"
      },
      "pushLinkr(bytes32,uint256,uint256,string,bytes)": {
        "details": "Main function to link Ethereum address to Nostr pubkey.      Content is derived internally from msg.sender — no need to pass it.      Kind and tags are not validated here; they are protocol-level concerns      defined by the NIP and enforced client-side.",
        "params": {
          "createdAt": "Unix timestamp when the event was created",
          "kind": "The Nostr event kind",
          "pubkey": "The Nostr public key to link with",
          "sig": "The Schnorr signature of the Nostr event (64 bytes)",
          "tags": "JSON string of event tags"
        }
      },
      "verifyNostrEvent(bytes32,bytes32,uint256,uint256,string,string,bytes)": {
        "details": "Verify Nostr event according to NIP-01 specification",
        "params": {
          "content": "The event content",
          "createdAt": "Unix timestamp of event creation",
          "eventId": "The expected event ID (hash)",
          "kind": "The event kind",
          "pubkey": "The public key that signed the event",
          "signature": "The Schnorr signature (64 bytes)",
          "tags": "JSON string of event tags"
        },
        "returns": {
          "_0": "bool True if the event is valid, false otherwise"
        }
      }
    },
    "title": "NostrLinkr",
    "version": 1
  },
  "userdoc": {
    "kind": "user",
    "methods": {},
    "notice": "This contract has no owner and cannot be paused. Once deployed, it is fully autonomous.",
    "version": 1
  },
  "storageLayout": {
    "storage": [
      {
        "astId": 6,
        "contract": "contracts/NostrLinkr.sol:NostrLinkr",
        "label": "addressPubkey",
        "offset": 0,
        "slot": "0",
        "type": "t_mapping(t_address,t_bytes32)"
      },
      {
        "astId": 10,
        "contract": "contracts/NostrLinkr.sol:NostrLinkr",
        "label": "pubkeyAddress",
        "offset": 0,
        "slot": "1",
        "type": "t_mapping(t_bytes32,t_address)"
      }
    ],
    "types": {
      "t_address": {
        "encoding": "inplace",
        "label": "address",
        "numberOfBytes": "20"
      },
      "t_bytes32": {
        "encoding": "inplace",
        "label": "bytes32",
        "numberOfBytes": "32"
      },
      "t_mapping(t_address,t_bytes32)": {
        "encoding": "mapping",
        "key": "t_address",
        "label": "mapping(address => bytes32)",
        "numberOfBytes": "32",
        "value": "t_bytes32"
      },
      "t_mapping(t_bytes32,t_address)": {
        "encoding": "mapping",
        "key": "t_bytes32",
        "label": "mapping(bytes32 => address)",
        "numberOfBytes": "32",
        "value": "t_address"
      }
    }
  }
}