{
  "address": "0xbC379bEFBAA269AfC2a1891438A7b8737E79A476",
  "abi": [
    {
      "anonymous": false,
      "inputs": [
        {
          "indexed": true,
          "internalType": "address",
          "name": "addr",
          "type": "address"
        },
        {
          "indexed": true,
          "internalType": "bytes32",
          "name": "pubkey",
          "type": "bytes32"
        }
      ],
      "name": "LinkrPulled",
      "type": "event"
    },
    {
      "anonymous": false,
      "inputs": [
        {
          "indexed": true,
          "internalType": "address",
          "name": "addr",
          "type": "address"
        },
        {
          "indexed": true,
          "internalType": "bytes32",
          "name": "pubkey",
          "type": "bytes32"
        }
      ],
      "name": "LinkrPushed",
      "type": "event"
    },
    {
      "inputs": [
        {
          "internalType": "address",
          "name": "",
          "type": "address"
        }
      ],
      "name": "addressPubkey",
      "outputs": [
        {
          "internalType": "bytes32",
          "name": "",
          "type": "bytes32"
        }
      ],
      "stateMutability": "view",
      "type": "function"
    },
    {
      "inputs": [
        {
          "internalType": "bytes32",
          "name": "pubkey",
          "type": "bytes32"
        },
        {
          "internalType": "uint256",
          "name": "createdAt",
          "type": "uint256"
        },
        {
          "internalType": "uint256",
          "name": "kind",
          "type": "uint256"
        },
        {
          "internalType": "string",
          "name": "tags",
          "type": "string"
        },
        {
          "internalType": "string",
          "name": "content",
          "type": "string"
        }
      ],
      "name": "getEventHash",
      "outputs": [
        {
          "internalType": "bytes32",
          "name": "",
          "type": "bytes32"
        }
      ],
      "stateMutability": "pure",
      "type": "function"
    },
    {
      "inputs": [
        {
          "internalType": "bytes32",
          "name": "",
          "type": "bytes32"
        }
      ],
      "name": "pubkeyAddress",
      "outputs": [
        {
          "internalType": "address",
          "name": "",
          "type": "address"
        }
      ],
      "stateMutability": "view",
      "type": "function"
    },
    {
      "inputs": [],
      "name": "pullLinkr",
      "outputs": [],
      "stateMutability": "nonpayable",
      "type": "function"
    },
    {
      "inputs": [
        {
          "internalType": "bytes32",
          "name": "id",
          "type": "bytes32"
        },
        {
          "internalType": "bytes32",
          "name": "pubkey",
          "type": "bytes32"
        },
        {
          "internalType": "uint256",
          "name": "createdAt",
          "type": "uint256"
        },
        {
          "internalType": "uint256",
          "name": "kind",
          "type": "uint256"
        },
        {
          "internalType": "string",
          "name": "tags",
          "type": "string"
        },
        {
          "internalType": "string",
          "name": "content",
          "type": "string"
        },
        {
          "internalType": "bytes",
          "name": "sig",
          "type": "bytes"
        }
      ],
      "name": "pushLinkr",
      "outputs": [],
      "stateMutability": "nonpayable",
      "type": "function"
    },
    {
      "inputs": [
        {
          "internalType": "bytes32",
          "name": "eventId",
          "type": "bytes32"
        },
        {
          "internalType": "bytes32",
          "name": "pubkey",
          "type": "bytes32"
        },
        {
          "internalType": "uint256",
          "name": "createdAt",
          "type": "uint256"
        },
        {
          "internalType": "uint256",
          "name": "kind",
          "type": "uint256"
        },
        {
          "internalType": "string",
          "name": "tags",
          "type": "string"
        },
        {
          "internalType": "string",
          "name": "content",
          "type": "string"
        },
        {
          "internalType": "bytes",
          "name": "signature",
          "type": "bytes"
        }
      ],
      "name": "verifyNostrEvent",
      "outputs": [
        {
          "internalType": "bool",
          "name": "",
          "type": "bool"
        }
      ],
      "stateMutability": "view",
      "type": "function"
    }
  ],
  "transactionHash": "0xc2edde1f144b5b50d3e2cdce19acff2716c49c0ea4fb4738217cea7310c38a26",
  "args": [],
  "numDeployments": 1,
  "solcInputHash": "971bb7dc86ef5403b19c82b7eaafba6c",
  "bytecode": "0x6080604052348015600f57600080fd5b506116848061001f6000396000f3fe608060405234801561001057600080fd5b50600436106100625760003560e01c80630769218d1461006757806328b556b5146100715780633d2943c71461009757806369492107146100aa5780636c72992f146100eb578063a1f7347d1461010e575b600080fd5b61006f61012e565b005b61008461007f366004611233565b6101e6565b6040519081526020015b60405180910390f35b61006f6100a53660046112b9565b6102a7565b6100d36100b83660046113aa565b6001602052600090815260409020546001600160a01b031681565b6040516001600160a01b03909116815260200161008e565b6100fe6100f93660046112b9565b61063f565b604051901515815260200161008e565b61008461011c3660046113c3565b60006020819052908152604090205481565b33600090815260208190526040902054806101905760405162461bcd60e51b815260206004820152601e60248201527f4e6f206c696e6b20666f756e6420666f7220746869732061646472657373000060448201526064015b60405180910390fd5b33600081815260208181526040808320839055848352600190915280822080546001600160a01b0319169055518392917fcb1761c67e581f1806ca9344609c4f101f20600f0fbacb43bb965d5c899e136c91a350565b600080610213876040516020016101ff91815260200190565b604051602081830303815290604052610794565b61021c8761092f565b6102258761092f565b868660405160200161023b95949392919061142c565b604051602081830303815290604052905060028160405161025c91906114f8565b602060405180830381855afa158015610279573d6000803e3d6000fd5b5050506040513d601f19601f8201168201806040525081019061029c9190611514565b979650505050505050565b604081146102f75760405162461bcd60e51b815260206004820152601860248201527f496e76616c6964207369676e6174757265206c656e67746800000000000000006044820152606401610187565b84616a63146103485760405162461bcd60e51b815260206004820152601c60248201527f496e76616c6964206b696e6420666f72204e6f737472204c696e6b72000000006044820152606401610187565b61035461012c42611543565b8611156103a35760405162461bcd60e51b815260206004820152601f60248201527f43726561746564417420746f6f2066617220696e2074686520667574757265006044820152606401610187565b6103af610e1042611556565b8610156103fe5760405162461bcd60e51b815260206004820152601d60248201527f43726561746564417420746f6f2066617220696e2074686520706173740000006044820152606401610187565b6040805180820190915260028152615b5d60f01b6020918201528451908501207f518674ab2b227e5f11e9084f615d57663cde47bce1ba168b4c19c7ee22a73d70146104975760405162461bcd60e51b815260206004820152602260248201527f54616773206d75737420626520656d70747920666f72204e6f737472204c696e60448201526135b960f11b6064820152608401610187565b6104a033610a5b565b805190602001208380519060200120146105175760405162461bcd60e51b815260206004820152603260248201527f436f6e74656e74206d7573742062652073656e64657227732061646472657373604482015271040eed2e8d0deeae84060f040e0e4caccd2f60731b6064820152608401610187565b610527888888888888888861063f565b6105735760405162461bcd60e51b815260206004820152601760248201527f496e76616c6964204e6f737472207369676e61747572650000000000000000006044820152606401610187565b3360009081526020819052604090205480156105a657600081815260016020526040902080546001600160a01b03191690555b6000888152600160205260409020546001600160a01b031680156105de576001600160a01b0381166000908152602081905260408120555b336000818152602081815260408083208d90558c8352600190915280822080546001600160a01b03191684179055518b92917f33d53066fcd804d37605011eda236659f0b7ae3d7006521f5ce372ce912411d291a350505050505050505050565b6000604082146106915760405162461bcd60e51b815260206004820152601a60248201527f5369676e6174757265206d7573742062652036342062797465730000000000006044820152606401610187565b60006106a9896040516020016101ff91815260200190565b6106b28961092f565b6106bb8961092f565b88886040516020016106d195949392919061142c565b604051602081830303815290604052905060006002826040516106f491906114f8565b602060405180830381855afa158015610711573d6000803e3d6000fd5b5050506040513d601f19601f820116820180604052508101906107349190611514565b90508a81146107795760405162461bcd60e51b815260206004820152601160248201527008aeccadce840928840dad2e6dac2e8c6d607b1b6044820152606401610187565b6107858a8c8787610bca565b9b9a5050505050505050505050565b60408051808201909152601081526f181899199a1a9b1b9c1cb0b131b232b360811b60208201528151606091906000906107cf906002611569565b67ffffffffffffffff8111156107e7576107e761118e565b6040519080825280601f01601f191660200182016040528015610811576020820181803683370190505b50905060005b84518110156109275782600486838151811061083557610835611580565b016020015182516001600160f81b031990911690911c60f81c90811061085d5761085d611580565b01602001516001600160f81b03191682610878836002611569565b8151811061088857610888611580565b60200101906001600160f81b031916908160001a905350828582815181106108b2576108b2611580565b602091010151815160f89190911c600f169081106108d2576108d2611580565b01602001516001600160f81b031916826108ed836002611569565b6108f8906001611543565b8151811061090857610908611580565b60200101906001600160f81b031916908160001a905350600101610817565b509392505050565b6060816000036109565750506040805180820190915260018152600360fc1b602082015290565b8160005b8115610980578061096a81611596565b91506109799050600a836115c5565b915061095a565b60008167ffffffffffffffff81111561099b5761099b61118e565b6040519080825280601f01601f1916602001820160405280156109c5576020820181803683370190505b509050815b8515610a52576109db600182611556565b905060006109ea600a886115c5565b6109f590600a611569565b6109ff9088611556565b610a0a9060306115d9565b905060008160f81b905080848481518110610a2757610a27611580565b60200101906001600160f81b031916908160001a905350610a49600a896115c5565b975050506109ca565b50949350505050565b604080518082018252601081526f181899199a1a9b1b9c1cb0b131b232b360811b60208201528151602880825260608281019094526001600160a01b038516929160009160208201818036833701905050905060005b6014811015610a525782600485610ac984600c611543565b60208110610ad957610ad9611580565b1a60f81b6001600160f81b031916901c60f81c60ff1681518110610aff57610aff611580565b01602001516001600160f81b03191682610b1a836002611569565b81518110610b2a57610b2a611580565b60200101906001600160f81b031916908160001a9053508284610b4e83600c611543565b60208110610b5e57610b5e611580565b825191901a600f16908110610b7557610b75611580565b01602001516001600160f81b03191682610b90836002611569565b610b9b906001611543565b81518110610bab57610bab611580565b60200101906001600160f81b031916908160001a905350600101610ab1565b600080610bda60208285876115f2565b610be39161161c565b90506000610bf56040602086886115f2565b610bfe9161161c565b90506401000003d0198210610c1857600092505050610eb9565b70014551231950b75fc4402da1732fc9bebe198110610c3c57600092505050610eb9565b866401000003d0198110610c565760009350505050610eb9565b6000610c6182610ec1565b905080600003610c78576000945050505050610eb9565b610c8360028261163a565b15610c9b57610c98816401000003d019611556565b90505b60006002604051610cc39070424950303334302f6368616c6c656e676560781b815260110190565b602060405180830381855afa158015610ce0573d6000803e3d6000fd5b5050506040513d601f19601f82011682018060405250810190610d039190611514565b604080516020810183905290810182905260608101879052608081018c905260a081018b905290915060009070014551231950b75fc4402da1732fc9bebe199060029060c00160408051601f1981840301815290829052610d63916114f8565b602060405180830381855afa158015610d80573d6000803e3d6000fd5b5050506040513d601f19601f82011682018060405250810190610da39190611514565b610dad919061163a565b9050600080610dfd7f79be667ef9dcbbac55a06295ce870b07029bfcdb2dce28d959f2815b16f817987f483ada7726a3c4655da4fbfc0e1108a8fd17b448a68554199c47d08ffb10d4b889610f35565b91509150600080610e0f888887610f35565b90925090506000610e26826401000003d019611556565b9050600080610e3787878786610fbb565b91509150816000148015610e49575080155b15610e645760009d5050505050505050505050505050610eb9565b8c8214610e815760009d5050505050505050505050505050610eb9565b610e8c60028261163a565b15610ea75760009d5050505050505050505050505050610eb9565b60019d50505050505050505050505050505b949350505050565b6000806401000003d01960076401000003d019856401000003d019878809090890506000610f12826004610efc6401000003d0196001611543565b610f0691906115c5565b6401000003d01961112a565b9050816401000003d01982830914610f2e575060009392505050565b9392505050565b60008082600003610f4b57506000905080610fb3565b50600090508084845b8415610fb05784600116600103610f935783158015610f71575082155b15610f8157819350809250610f93565b610f8d84848484610fbb565b90945092505b610f9f82828484610fbb565b60019690961c959092509050610f54565b50505b935093915050565b60008085158015610fca575084155b15610fd9575082905081611121565b83158015610fe5575082155b15610ff4575084905083611121565b600084870361106957838614611011576000809250925050611121565b85600003611026576000809250925050611121565b60006401000003d01980898a09600309905060006401000003d0198860020990506401000003d01961105e826401000003d01961116e565b8309925050506110c1565b60006401000003d019611082886401000003d019611556565b8608905060006401000003d01961109f8a6401000003d019611556565b880890506401000003d0196110ba826401000003d01961116e565b8309925050505b6401000003d019808689086110dc906401000003d019611556565b6401000003d0198384090892506401000003d019611100876401000003d019611556565b6401000003d01980611118876401000003d019611556565b8b088409089150505b94509492505050565b600060405160208152602080820152602060408201528460608201528360808201528260a082015260208160c08360055afa61116557600080fd5b51949350505050565b60006111858361117f600285611556565b8461112a565b90505b92915050565b634e487b7160e01b600052604160045260246000fd5b600082601f8301126111b557600080fd5b813567ffffffffffffffff8111156111cf576111cf61118e565b604051601f8201601f19908116603f0116810167ffffffffffffffff811182821017156111fe576111fe61118e565b60405281815283820160200185101561121657600080fd5b816020850160208301376000918101602001919091529392505050565b600080600080600060a0868803121561124b57600080fd5b853594506020860135935060408601359250606086013567ffffffffffffffff81111561127757600080fd5b611283888289016111a4565b925050608086013567ffffffffffffffff8111156112a057600080fd5b6112ac888289016111a4565b9150509295509295909350565b60008060008060008060008060e0898b0312156112d557600080fd5b88359750602089013596506040890135955060608901359450608089013567ffffffffffffffff81111561130857600080fd5b6113148b828c016111a4565b94505060a089013567ffffffffffffffff81111561133157600080fd5b61133d8b828c016111a4565b93505060c089013567ffffffffffffffff81111561135a57600080fd5b8901601f81018b1361136b57600080fd5b803567ffffffffffffffff81111561138257600080fd5b8b602082840101111561139457600080fd5b989b979a50959850939692959194602001935050565b6000602082840312156113bc57600080fd5b5035919050565b6000602082840312156113d557600080fd5b81356001600160a01b0381168114610f2e57600080fd5b60005b838110156114075781810151838201526020016113ef565b50506000910152565b600081516114228185602086016113ec565b9290920192915050565b632d98161160e11b8152855160009061144c816004850160208b016113ec565b61088b60f21b600491840191820152865161146e816006840160208b016113ec565b600481830101915050600b60fa1b60028201528551611494816003840160208a016113ec565b600281830101915050600b60fa1b600182015284516114ba8160028401602089016113ec565b6114eb6114dd6114d760028585010161161160f11b815260020190565b87611410565b61225d60f01b815260020190565b9998505050505050505050565b6000825161150a8184602087016113ec565b9190910192915050565b60006020828403121561152657600080fd5b5051919050565b634e487b7160e01b600052601160045260246000fd5b808201808211156111885761118861152d565b818103818111156111885761118861152d565b80820281158282048414176111885761118861152d565b634e487b7160e01b600052603260045260246000fd5b6000600182016115a8576115a861152d565b5060010190565b634e487b7160e01b600052601260045260246000fd5b6000826115d4576115d46115af565b500490565b60ff81811683821601908111156111885761118861152d565b6000808585111561160257600080fd5b8386111561160f57600080fd5b5050820193919092039150565b8035602083101561118857600019602084900360031b1b1692915050565b600082611649576116496115af565b50069056fea264697066735822122092bb6ea0b86056779406d8889949a07ae5b3d40d5b326bc6370384bab22dbc4f64736f6c634300081e0033",
  "devdoc": {
    "details": "Permissionless smart contract to link Ethereum addresses with Nostr public keys.      Full BIP-340 Schnorr signature verification performed entirely on-chain.",
    "kind": "dev",
    "methods": {
      "getEventHash(bytes32,uint256,uint256,string,string)": {
        "details": "Utility function for testing - compute event hash",
        "params": {
          "content": "Address content (without 0x prefix)",
          "createdAt": "Unix timestamp",
          "kind": "Event kind",
          "pubkey": "The public key",
          "tags": "Event tags"
        },
        "returns": {
          "_0": "bytes32 The computed event hash"
        }
      },
      "pullLinkr()": {
        "details": "Remove the linkage between caller's address and their Nostr pubkey"
      },
      "pushLinkr(bytes32,bytes32,uint256,uint256,string,string,bytes)": {
        "details": "Main function to link Ethereum address to Nostr pubkey",
        "params": {
          "content": "The content of the event (must be sender's address without 0x prefix)",
          "createdAt": "Unix timestamp when the event was created",
          "id": "The Nostr event ID (hash of the event)",
          "kind": "The Nostr event kind (must be 27235 for linkage)",
          "pubkey": "The Nostr public key to link with",
          "sig": "The Schnorr signature of the Nostr event (64 bytes)",
          "tags": "JSON string of event tags (must be empty array \"[]\")"
        }
      },
      "verifyNostrEvent(bytes32,bytes32,uint256,uint256,string,string,bytes)": {
        "details": "Verify Nostr event according to NIP-01 specification",
        "params": {
          "content": "The event content",
          "createdAt": "Unix timestamp of event creation",
          "eventId": "The expected event ID (hash)",
          "kind": "The event kind",
          "pubkey": "The public key that signed the event",
          "signature": "The Schnorr signature (64 bytes)",
          "tags": "JSON string of event tags"
        },
        "returns": {
          "_0": "bool True if the event is valid, false otherwise"
        }
      }
    },
    "title": "NostrLinkr",
    "version": 1
  },
  "userdoc": {
    "kind": "user",
    "methods": {},
    "notice": "This contract has no owner and cannot be paused. Once deployed, it is fully autonomous.",
    "version": 1
  },
  "storageLayout": {
    "storage": [
      {
        "astId": 6,
        "contract": "contracts/NostrLinkr.sol:NostrLinkr",
        "label": "addressPubkey",
        "offset": 0,
        "slot": "0",
        "type": "t_mapping(t_address,t_bytes32)"
      },
      {
        "astId": 10,
        "contract": "contracts/NostrLinkr.sol:NostrLinkr",
        "label": "pubkeyAddress",
        "offset": 0,
        "slot": "1",
        "type": "t_mapping(t_bytes32,t_address)"
      }
    ],
    "types": {
      "t_address": {
        "encoding": "inplace",
        "label": "address",
        "numberOfBytes": "20"
      },
      "t_bytes32": {
        "encoding": "inplace",
        "label": "bytes32",
        "numberOfBytes": "32"
      },
      "t_mapping(t_address,t_bytes32)": {
        "encoding": "mapping",
        "key": "t_address",
        "label": "mapping(address => bytes32)",
        "numberOfBytes": "32",
        "value": "t_bytes32"
      },
      "t_mapping(t_bytes32,t_address)": {
        "encoding": "mapping",
        "key": "t_bytes32",
        "label": "mapping(bytes32 => address)",
        "numberOfBytes": "32",
        "value": "t_address"
      }
    }
  }
}